{
  "contractName": "MessageVerifier",
  "abi": [
    {
      "inputs": [
        {
          "internalType": "string",
          "name": "message",
          "type": "string"
        }
      ],
      "name": "getMessageHash",
      "outputs": [
        {
          "internalType": "bytes32",
          "name": "",
          "type": "bytes32"
        }
      ],
      "stateMutability": "pure",
      "type": "function",
      "constant": true
    },
    {
      "inputs": [
        {
          "internalType": "bytes32",
          "name": "messageHash",
          "type": "bytes32"
        }
      ],
      "name": "getEthSignedMessageHash",
      "outputs": [
        {
          "internalType": "bytes32",
          "name": "",
          "type": "bytes32"
        }
      ],
      "stateMutability": "pure",
      "type": "function",
      "constant": true
    },
    {
      "inputs": [
        {
          "internalType": "bytes32",
          "name": "ethSignedMessageHash",
          "type": "bytes32"
        },
        {
          "internalType": "bytes",
          "name": "signature",
          "type": "bytes"
        }
      ],
      "name": "recover",
      "outputs": [
        {
          "internalType": "address",
          "name": "",
          "type": "address"
        }
      ],
      "stateMutability": "pure",
      "type": "function",
      "constant": true
    },
    {
      "inputs": [
        {
          "internalType": "string",
          "name": "message",
          "type": "string"
        },
        {
          "internalType": "bytes",
          "name": "signature",
          "type": "bytes"
        }
      ],
      "name": "verifySignature",
      "outputs": [
        {
          "internalType": "address",
          "name": "",
          "type": "address"
        }
      ],
      "stateMutability": "pure",
      "type": "function",
      "constant": true
    }
  ],
  "bytecode": "0x608060405234801561001057600080fd5b5061081c806100206000396000f3fe608060405234801561001057600080fd5b506004361061004c5760003560e01c806319045a25146100515780633634791e14610081578063b446f3b2146100b1578063fa540801146100e1575b600080fd5b61006b60048036038101906100669190610385565b610111565b60405161007891906105b8565b60405180910390f35b61009b6004803603810190610096919061041a565b610180565b6040516100a891906105b8565b60405180910390f35b6100cb60048036038101906100c691906103d9565b6101af565b6040516100d891906105d3565b60405180910390f35b6100fb60048036038101906100f6919061035c565b6101df565b60405161010891906105d3565b60405180910390f35b6000806000806101208561020f565b9250925092506001868285856040516000815260200160405260405161014994939291906105ee565b6020604051602081039080840390855afa15801561016b573d6000803e3d6000fd5b50505060206040510351935050505092915050565b60008061018c846101af565b90506000610199826101df565b90506101a58185610111565b9250505092915050565b6000816040516020016101c2919061057b565b604051602081830303815290604052805190602001209050919050565b6000816040516020016101f29190610592565b604051602081830303815290604052805190602001209050919050565b60008060006041845114610258576040517f08c379a000000000000000000000000000000000000000000000000000000000815260040161024f90610633565b60405180910390fd5b6020840151925060408401519150606084015160001a90509193909250565b600061028a61028584610684565b610653565b9050828152602081018484840111156102a257600080fd5b6102ad848285610754565b509392505050565b60006102c86102c3846106b4565b610653565b9050828152602081018484840111156102e057600080fd5b6102eb848285610754565b509392505050565b600081359050610302816107cf565b92915050565b600082601f83011261031957600080fd5b8135610329848260208601610277565b91505092915050565b600082601f83011261034357600080fd5b81356103538482602086016102b5565b91505092915050565b60006020828403121561036e57600080fd5b600061037c848285016102f3565b91505092915050565b6000806040838503121561039857600080fd5b60006103a6858286016102f3565b925050602083013567ffffffffffffffff8111156103c357600080fd5b6103cf85828601610308565b9150509250929050565b6000602082840312156103eb57600080fd5b600082013567ffffffffffffffff81111561040557600080fd5b61041184828501610332565b91505092915050565b6000806040838503121561042d57600080fd5b600083013567ffffffffffffffff81111561044757600080fd5b61045385828601610332565b925050602083013567ffffffffffffffff81111561047057600080fd5b61047c85828601610308565b9150509250929050565b61048f8161070b565b82525050565b61049e8161071d565b82525050565b6104b56104b08261071d565b610796565b82525050565b60006104c6826106e4565b6104d08185610700565b93506104e0818560208601610763565b80840191505092915050565b60006104f9601c83610700565b91507f19457468657265756d205369676e6564204d6573736167653a0a3332000000006000830152601c82019050919050565b6000610539601f836106ef565b91507f5369676e6174757265206d757374206265203635206279746573206c6f6e67006000830152602082019050919050565b61057581610747565b82525050565b600061058782846104bb565b915081905092915050565b600061059d826104ec565b91506105a982846104a4565b60208201915081905092915050565b60006020820190506105cd6000830184610486565b92915050565b60006020820190506105e86000830184610495565b92915050565b60006080820190506106036000830187610495565b610610602083018661056c565b61061d6040830185610495565b61062a6060830184610495565b95945050505050565b6000602082019050818103600083015261064c8161052c565b9050919050565b6000604051905081810181811067ffffffffffffffff8211171561067a576106796107a0565b5b8060405250919050565b600067ffffffffffffffff82111561069f5761069e6107a0565b5b601f19601f8301169050602081019050919050565b600067ffffffffffffffff8211156106cf576106ce6107a0565b5b601f19601f8301169050602081019050919050565b600081519050919050565b600082825260208201905092915050565b600081905092915050565b600061071682610727565b9050919050565b6000819050919050565b600073ffffffffffffffffffffffffffffffffffffffff82169050919050565b600060ff82169050919050565b82818337600083830152505050565b60005b83811015610781578082015181840152602081019050610766565b83811115610790576000848401525b50505050565b6000819050919050565b7f4e487b7100000000000000000000000000000000000000000000000000000000600052604160045260246000fd5b6107d88161071d565b81146107e357600080fd5b5056fea264697066735822122011a5afd588148a67c6290e04bc696565699af123351fa25c22a4ad2588a621e364736f6c63430008000033",
  "immutableReferences": {},
  "source": "//SPDX-License-Identifier: Unlicensed\n\npragma solidity ^0.8.0;\n\ncontract MessageVerifier {\n\n    function _split(bytes memory signature) internal pure returns(bytes32 r, bytes32 s, uint8 v) {\n        require(signature.length == 65, \"Signature must be 65 bytes long\");\n        assembly {\n            r := mload(add(signature, 32))\n            s := mload(add(signature, 64))\n            v := byte(0, mload(add(signature, 96)))\n        }\n    }\n\n    function getMessageHash(string memory message) public pure returns(bytes32) {\n        return keccak256(abi.encodePacked(message));\n    }\n\n    function getEthSignedMessageHash(bytes32 messageHash) public pure returns(bytes32) {\n        return keccak256(abi.encodePacked(\"\\x19Ethereum Signed Message:\\n32\", messageHash));\n    }\n\n    function recover(bytes32 ethSignedMessageHash, bytes memory signature) public pure returns(address) {\n        (bytes32 r, bytes32 s, uint8 v) = _split(signature);\n        return ecrecover(ethSignedMessageHash, v, r, s);\n    }\n\n    function verifySignature(string memory message, bytes memory signature) public pure returns(address) {\n        bytes32 messageHash = getMessageHash(message);\n        bytes32 ethSignedMessageHash = getEthSignedMessageHash(messageHash);\n\n        return recover(ethSignedMessageHash, signature);\n    }\n\n}",
  "sourcePath": "/home/hardunel/work/projects/SCV/SmartContract/src/MessageVerifier.sol",
  "compiler": {
    "name": "solc",
    "version": "0.8.0+commit.c7dfd78e.Emscripten.clang"
  },
  "schemaVersion": "3.4.10",
  "updatedAt": "2023-03-12T10:40:45.325Z",
  "networkType": "ethereum",
  "devdoc": {
    "kind": "dev",
    "methods": {},
    "version": 1
  },
  "userdoc": {
    "kind": "user",
    "methods": {},
    "version": 1
  }
}